:020000040800F2
:1000000000000120050700085507000855070008F3
:1000100055070008550700085507000800000000B4
:10002000000000000000000000000000550700086C
:100030005507000800000000550700085507000894
:100040000000000055070008550700085507000884
:100050005507000855070008550700085507000810
:100060005507000855070008550700080000000064
:100070000000000000000000000000000000000080
:10008000000000000000000055070008000000000C
:1000900000000000000000000000000055070008FC
:1000A00055070008550700085507000855070008C0
:1000B0005507000855070008000000005507000814
:1000C00055070008550700085507000855070008A0
:1000D00055070008000000000000000000000000BC
:1000E00055070008550700085507000800000000E4
:1000F0000000000000000000000000000000000000
:100100000000000055070008000000005507000827
:1001100000000000000000000000000000000000DF
:1001200000000000000000000000000000000000CF
:1001300000000000000000000000000000000000BF
:10014000000000000000000000000000550700084B
:10015000000000000000000000000000000000009F
:1001600055070008550700080000000000000000C7
:10017000000000000000000000000000000000007F
:10018000000000005507000800000000000000000B
:040190005507000807
:1001940010B5054C237833B9044B13B10448AFF3BD
:1001A40000800123237010BD1C000020000000000B
:1001B400A007000808B5034B1BB103490348AFF37C
:1001C400008008BD0000000020000020A0070008F7
:1001D40080B485B000AF0023FB73C9E0FA7B6A49A1
:1001E40013469B0013440B441B78BB73BB7B032B4C
:1001F40000F2C380654B1B6BBA7B012101FA02F24A
:100204001146624A0B431363BB7B614A52F82330A5
:10021400BB60FA7B5C4913469B0013440B440133D7
:100224001B78FB71BB681B68FA795200013201210B
:1002340001FA02F2D2431A40BB681A60FA7B5249AF
:1002440013469B0013440B4402331B78002B28D025
:10025400BB681B68FA795200012101FA02F21A43C1
:10026400BB681A60FA7B484913469B0013440B444D
:1002740004331B78002B09D0BB685B68FA79012131
:1002840001FA02F21A43BB685A606EE0BB685B680D
:10029400FA79012101FA02F2D2431A40BB685A608A
:1002A40063E0BB681B68FA795200012101FA02F28B
:1002B400D2431A40BB681A60FA7B334913469B0049
:1002C40013440B4403331B78012B16D1BB68DB6842
:1002D400FA795200012101FA02F21A43BB68DA608A
:1002E400BB68DB68FA7952000132012101FA02F29B
:1002F400D2431A40BB68DA6037E0FA7B22491346DE
:100304009B0013440B4403331B78022B16D1BB68A8
:10031400DB68FA7952000132012101FA02F21A4330
:10032400BB68DA60BB68DB68FA795200012101FA24
:1003340002F2D2431A40BB68DA6016E0BB68DB689D
:10034400FA795200012101FA02F2D2431A40BB6841
:10035400DA60BB68DB68FA7952000132012101FAE4
:1003640002F2D2431A40BB68DA60FB7B0133FB73B1
:10037400FB7B042B7FF632AF00E000BF00BF1437D5
:10038400BD465DF8047B7047B8070008003802409A
:100394000000002080B485B000AF7860396000238D
:1003A400FB7357E0FB7B7A6813441B78042B4ED80D
:1003B400FB7B7A6813441B7819462B4A0B469B0037
:1003C4000B4413441B78BB73FB7B7A6813441B7880
:1003D4001946254A0B469B000B44134402331B78F1
:1003E400002B34D0BB7B214A52F82330BB60FB7B0B
:1003F4003A6813441B78002B14D0BB685A69FB7B02
:1004040079680B441B781846174903469B0003443C
:100414000B4401331B78194601238B401A43BB68F4
:100424005A6114E0BB685A69FB7B79680B441B78FA
:1004340018460D4903469B0003440B4401331B78C3
:10044400194601238B40DB431A40BB685A61FB7B8E
:100454000133FB73FB7B022BA4D900BF00BF14370D
:10046400BD465DF8047B7047B80700080000002013
:1004740080B487B000AF7860396000237B6144E0CA
:100484007B697A6813441B78042B3BD87B697A68B0
:1004940013441B781946224A0B469B000B44134411
:1004A4001B78FB747B697A6813441B7819461C4AD1
:1004B4000B469B000B44134402331B78002B21D1C1
:1004C400FB7C184A52F82330FB607B697A6813443A
:1004D4001B781946124A0B469B000B441344013304
:1004E4001B781A46012393401A46FB681B69134084
:1004F400002B14BF01230023D9B27B693A6813444B
:100504000A461A707B6901337B617B69022BB7DD74
:100514003B6818461C37BD465DF8047B704700BF36
:10052400B80700080000002080B485B000AF7860F0
:100534000023FB6002E0FB680133FB60FA687B6820
:100544009A42F8DB00BF00BF1437BD465DF8047B58
:100554007047000080B500AFFFF73AFE0C490D4824
:10056400FFF786FF4FF4FA70FFF7DEFF08490948EA
:10057400FFF77EFF064B1B78002BEFD1044B5B7813
:10058400012BEBD104490548FFF704FFE6E700BF60
:100594003C0000201800002014000020100000205F
:1005A40080B500AF164BD3F88830154A43F4700376
:1005B400C2F88830134B1B68124A43F001031360DE
:1005C400104B00229A600F4B1B680E4A23F0847371
:1005D40023F4803313600B4B0B4A5A60094B1B689E
:1005E400084A23F480231360064B0022DA6000F0EB
:1005F4000DF8034B4FF000629A6000BF80BD00BF4E
:1006040000ED00E0003802401030002480B483B0D4
:1006140000AF00237B6000233B60354B1B68344AEA
:1006240043F480331360324B1B6803F400333B60A4
:100634007B6801337B603B68002B03D17B68B3F597
:10064400A04FF0D12A4B1B6803F40033002B02D0D7
:1006540001233B6001E000233B603B68012B40D158
:10066400234B1B6C224A43F080531364214B1B68B9
:10067400204A43F4404313601D4B1D4A9B6893601A
:100684001B4B1B4A9B689360194B9B68184A43F4A5
:1006940080539360164B184A5A60154B1B68144AD2
:1006A40043F08073136000BF114B1B6803F00073A9
:1006B400002BF9D0114B40F202721A600C4B9B686C
:1006C4000B4A23F003039360094B9B68084A43F0E9
:1006D4000203936000BF064B9B6803F00C03082BD6
:1006E400F9D100BF0C37BD465DF8047B704700BFED
:1006F400003802400070004019544107003C024099
:100704000D4885460D480E490E4A002302E0D45890
:10071400C4500433C4188C42F9D30B4A0B4C002345
:1007240001E013600432A242FBD3FFF739FF00F06B
:1007340011F8FFF70FFFFEE7000001200000002082
:100744001C000020DC0700081C00002040000020E2
:10075400FEE7000070B50D4D0D4C641BA41000267F
:10076400A64209D10B4D0C4C00F018F8641BA410E0
:100774000026A64205D170BD55F8043B98470136C2
:10078400EEE755F8043B98470136F2E7D407000832
:10079400D4070008D4070008D8070008F8B500BF3C
:1007A400F8BC08BC9E467047F8B500BFF8BC08BC4E
:0407B4009E467047A6
:1007B8000001000000000201000000030100000029
:0C07C8000400000000050000000000001C
:0407D400B90100085F
:0407D800950100087F
:1007DC00000002400004024000080240000C0240ED
:0C07EC00010200000101000000030000F9
:0400000508000705E3
:00000001FF
