:020000040800F2
:1000000000000120A5080008F5080008F508000810
:10001000F5080008F5080008F508000800000000D1
:10002000000000000000000000000000F5080008CB
:10003000F508000800000000F5080008F5080008B1
:1000400000000000F5080008F5080008F5080008A1
:10005000F5080008F5080008F5080008F50800088C
:10006000F5080008F5080008F50800080000000081
:100070000000000000000000000000000000000080
:100080000000000000000000F5080008000000006B
:10009000000000000000000000000000F50800085B
:1000A000F5080008F5080008F5080008F50800083C
:1000B00025070008F508000800000000F508000802
:1000C000F5080008F5080008F5080008F50800081C
:1000D000F50800080000000000000000000000001B
:1000E000F5080008F5080008F50800080000000001
:1000F0000000000000000000000000000000000000
:1001000000000000F508000800000000F5080008E5
:1001100000000000000000000000000000000000DF
:1001200000000000000000000000000000000000CF
:1001300000000000000000000000000000000000BF
:10014000000000000000000000000000F5080008AA
:10015000000000000000000000000000000000009F
:10016000F5080008F5080008000000000000000085
:10017000000000000000000000000000000000007F
:1001800000000000F508000800000000000000006A
:04019000F508000866
:1001940010B5054C237833B9044B13B10448AFF3BD
:1001A40000800123237010BD5800002000000000CF
:1001B4004009000808B5034B1BB103490348AFF3DA
:1001C400008008BD000000005C0000204009000819
:1001D40080B483B000AF0346FB71084B1B68FA7907
:1001E400012101FA02F21146044A0B43136000BFD5
:1001F4000C37BD465DF8047B704700BF30380240C1
:1002040090B482B000AF0446084611461A4623460D
:10021400FB710346BB710B467B7113463B71FA7944
:10022400564913469B001344DB000B441B681968B2
:10023400BB795B00032202FA03F3DB431C46FA7921
:100244004E4813469B001344DB0003441B6801EA39
:1002540004021A60FA79494913469B001344DB00EF
:100264000B441B6819687A79BB795B0002FA03F3C3
:100274001C46FA79414813469B001344DB000344AF
:100284001B6841EA04021A60FA793C4913469B0050
:100294001344DB000B4404331B681968BB79012247
:1002A40002FA03F3DB431C46FA79344813469B00F5
:1002B4001344DB00034404331B6801EA04021A609C
:1002C400FA792E4913469B001344DB000B44043394
:1002D4001B6819683B7903F00102BB7902FA03F346
:1002E4001C46FA79254813469B001344DB0003445B
:1002F40004331B6841EA04021A60FA791F49134661
:100304009B001344DB000B440C331B681968BB7956
:100314005B00032202FA03F3DB431C46FA79174815
:1003240013469B001344DB0003440C331B6801EAAF
:1003340004021A60FA79114913469B001344DB0046
:100344000B440C331B6819683B795B1003F0030200
:10035400BB795B0002FA03F31C46FA79074813469B
:100364009B001344DB0003440C331B6841EA040282
:100374001A6000BF0837BD4690BC704700000020DB
:1003840090B484B000AF0346FB710B46BB711346B7
:100394007B71FA792C4913469B001344DB000B4410
:1003A4001B681B68BA795200032101FA02F21A4051
:1003B400BB795B0022FA03F3012B3DD17B79002B3F
:1003C4001BD0FA79204913469B001344DB000B44ED
:1003D40014331B681968BB79012202FA03F31C4623
:1003E400FA79194813469B001344DB000344143381
:1003F4001B6841EA04021A601BE0FA7912491346A9
:100404009B001344DB000B4414331B681968BB794D
:10041400012202FA03F3DB431C46FA790A48134625
:100424009B001344DB00034414331B6801EA0402F9
:100434001A600023FB7301E00123FB73FB7B184666
:100444001037BD4690BC70470000002080B485B0D2
:1004540000AF03460A46FB711346BB710023FB73CE
:10046400FA790C4913469B001344DB000B44103308
:100474001B681B68BA79012101FA02F21A40BB79A0
:1004840022FA03F3FB73FB7B18461437BD465DF871
:10049400047B70470000002080B500AF024800F0E4
:1004A40093F800BF80BD00BFB104000880B582B0DE
:1004B40000AF0346FB71FB79184600F004F800BF57
:1004C4000837BD4680BD80B582B000AF0346FB71DE
:1004D400FB79002B05D1002201210020FFF750FFFA
:1004E40004E0012201210020FFF74AFF00BF083782
:1004F400BD4680BD80B483B000AF0346FB71FB7979
:1005040003F01F02074997F907305B09012000FA3D
:1005140002F241F8232000BF0C37BD465DF8047B8E
:10052400704700BF00E100E080B400AF104B1B6CCB
:100534000F4A43F0010313644FF0804340F23F62DB
:100544001A854FF080436422DA624FF08043002220
:100554005A624FF080431B889BB24FF0804243F0B5
:1005640001039BB2138000BFBD465DF8047B704756
:100574000038024080B500AF4FF080439B899BB2A6
:100584004FF0804243F001039BB293811C20FFF79C
:10059400B1FF00BF80BD80B500AF00F055F800F09A
:1005A40059F800BF80BD000080B500AF00210020D5
:1005B400FFF74CFF03461A46024B1A70014B1B7897
:1005C400184680BD7C00002080B485B000AF786000
:1005D4000023FB600DE00C4AFB6852F82330002B2B
:1005E40004D10949FB687A6841F82320FB68013388
:1005F400FB60FB68012BEEDD00BF00BF1437BD4676
:100604005DF8047B704700BF7800002080B582B09D
:1006140000AF00237B600AE0094A7B6852F823306C
:10062400084A1278104698477B6801337B607B68E0
:10063400012BF1DD00BF00BF0837BD4680BD00BF00
:10064400780000207C00002080B500AFFFF7ACFFED
:1006540000BF80BD80B500AF0D4B1B68002B05D0DB
:100664000C4B1B68002B01D1FFF7D0FF094B1B6813
:100674000133084A1360074B1B68074A126893FB4F
:10068400F2F102FB01F29B1A024A136000BF80BD23
:1006940050000020740000205400002080B400AFFB
:1006A400034B01221A6000BFBD465DF8047B70470E
:1006B4005000002080B483B000AF78607B68074AA4
:1006C40082FB03125211DB17D31A054A136000BFD1
:1006D4000C37BD465DF8047B704700BF1F85EB51A6
:1006E4005400002080B500AF0020FFF771FD022305
:1006F400002200210020FFF783FD002301220121B5
:100704000020FFF77DFDFFF7C7FEFFF70DFFFFF7A2
:1007140031FF4FF4FA70FFF7CDFFFFF7BFFFFEE79D
:1007240080B500AF4FF080431B8A9BB24FF08042EC
:1007340023F001039BB21382FFF72DFF00BF80BD9E
:1007440080B500AF164BD3F88830154A43F47003D4
:10075400C2F88830134B1B68124A43F0010313603C
:10076400104B00229A600F4B1B680E4A23F08473CF
:1007740023F4803313600B4B0B4A5A60094B1B68FC
:10078400084A23F480231360064B0022DA6000F049
:100794000DF8034B4FF000629A6000BF80BD00BFAC
:1007A40000ED00E0003802401030002480B483B033
:1007B40000AF00237B6000233B60354B1B68344A49
:1007C40043F480331360324B1B6803F400333B6003
:1007D4007B6801337B603B68002B03D17B68B3F5F6
:1007E400A04FF0D12A4B1B6803F40033002B02D036
:1007F40001233B6001E000233B603B68012B40D1B7
:10080400234B1B6C224A43F080531364214B1B6817
:10081400204A43F4404313601D4B1D4A9B68936078
:100824001B4B1B4A9B689360194B9B68184A43F403
:1008340080539360164B184A5A60154B1B68144A30
:1008440043F08073136000BF114B1B6803F0007307
:10085400002BF9D0114B40F202721A600C4B9B68CA
:100864000B4A23F003039360094B9B68084A43F047
:100874000203936000BF064B9B6803F00C03082B34
:10088400F9D100BF0C37BD465DF8047B704700BF4B
:10089400003802400070004019544107003C0240F7
:1008A4000D4885460D480E490E4A002302E0D458EF
:1008B400C4500433C4188C42F9D30B4A0B4C0023A4
:1008C40001E013600432A242FBD3FFF739FF00F0CA
:1008D40011F8FFF707FFFEE70000012000000020E9
:1008E4005800002060090008580000208000002003
:1008F400FEE7000070B50D4D0D4C641BA4100026DE
:10090400A64209D10B4D0C4C00F018F8641BA4103E
:100914000026A64205D170BD55F8043B9847013620
:10092400EEE755F8043B98470136F2E7580900080A
:1009340058090008580900085C090008F8B500BF08
:10094400F8BC08BC9E467047F8B500BFF8BC08BCAC
:040954009E46704704
:04095800B9010008D9
:04095C0095010008F9
:100960000000024004000240080002400C00024067
:100970001000024014000240180002401C00024017
:10098000200002402400024000040240040402400F
:10099000080402400C040240100402401404024007
:1009A000180402401C0402402004024024040240B7
:0809B00001000000010000003D
:04000005080008A542
:00000001FF
