:020000040800F2
:100000000000012095060008E5060008E506000846
:10001000E5060008E5060008E50600080000000007
:10002000000000000000000000000000E5060008DD
:10003000E506000800000000E5060008E5060008E7
:10004000E5060008E5060008E5060008E5060008E4
:10005000E5060008E5060008E5060008E5060008D4
:10006000E5060008E5060008E5060008E5060008C4
:10007000E5060008E5060008E5060008E5060008B4
:10008000E5060008E5060008E50600080000000097
:10009000000000000000000000000000E50600086D
:1000A000E5060008E5060008E5060008E506000884
:1000B0002D060008E5060008E5060008E50600082C
:1000C000E5060008E5060008E5060008E506000864
:1000D000E5060008E5060008E50600080000000047
:1000E000E5060008E5060008E50600080000000037
:1000F000000000000000000000000000E50600080D
:1001000000000000E5060008E5060008E506000816
:1001100000000000000000000000000000000000DF
:10012000E5060008E5060008E5060008E506000803
:10013000E5060008000000000000000000000000CC
:10014000000000000000000000000000E5060008BC
:10015000E5060008E5060008E5060008E5060008D3
:10016000E5060008E50600080000000000000000A9
:10017000000000000000000000000000000000007F
:1001800000000000E506000800000000000000007C
:04019000E506000878
:1001940010B5054C237833B9044B13B10448AFF3BD
:1001A40000800123237010BD5000002000000000D7
:1001B4003007000808B5034B1BB103490348AFF3EC
:1001C400008008BD00000000540000203007000833
:1001D40080B483B000AF0346FB71074B1A68FB7908
:1001E400012101FA03F3044913430B6000BF0C37E8
:1001F400BD465DF8047B70473038024090B482B04D
:1002040000AF0446084611461A462346FB710346CE
:10021400BB710B467B7113463B71FA795349134604
:100224009B001344DB000B441B681868BB795B001C
:10023400032202FA03F3D943FA794C4C13469B0088
:100244001344DB0023441B6800EA01021A60FA79B4
:10025400464913469B001344DB000B441B68186893
:100264007A79BB795B0002FA03F1FA793F4C1346C1
:100274009B001344DB0023441B6840EA01021A601C
:10028400FA793A4913469B001344DB000B440433C8
:100294001B681868BB79012202FA03F3D943FA797F
:1002A400324C13469B001344DB00234404331B6885
:1002B40000EA01021A60FA792C4913469B001344A0
:1002C400DB000B4404331B6818683B7903F001021C
:1002D400BB7902FA03F1FA79244C13469B001344C8
:1002E400DB00234404331B6840EA01021A60FA79F4
:1002F4001E4913469B001344DB000B440C331B685C
:100304001868BB795B00032202FA03F3D943FA7934
:10031400164C13469B001344DB0023440C331B6828
:1003240000EA01021A60FA79104913469B0013444B
:10033400DB000B440C331B6818683B795B0803F043
:100344000303BA79520003FA02F1FA79074C13460F
:100354009B001344DB0023440C331B6840EA010276
:100364001A6000BF0837BD4690BC704700000020EB
:1003740090B484B000AF0346FB710B46BB711346C7
:100384007B71FA792B4913469B001344DB000B4421
:100394001B681A68BB795B00032101FA03F31A4056
:1003A400BB795B0022FA03F3012B3BD17B79002B51
:1003B4001AD0FA791F4913469B001344DB000B44FF
:1003C40014331B681868BB79012202FA03F1FA7925
:1003D400184C13469B001344DB00234414331B685E
:1003E40040EA01021A601AE0FA79124913469B00A6
:1003F4001344DB000B4414331B681868BB790122D7
:1004040002FA03F3D943FA790A4C13469B001344C6
:10041400DB00234414331B6800EA01021A60002342
:10042400FB7301E00123FB73FB7B18461037BD46C9
:1004340090BC70470000002080B483B000AF7860A7
:100444007B681F2B09D8154B1A6801217B6801FAB8
:1004540003F3124913430B601AE07B681F2B0DD979
:100464007B683E2B0AD80E4B1A687B68203B01211F
:1004740001FA03F30A4913430B6009E0094B1A68B4
:100484007B68403B012101FA03F3064913430B60E7
:1004940000BF0C37BD465DF8047B704700E100E007
:1004A40004E100E008E100E080B485B000AFBA6088
:1004B4007B600346FB730B46BB733E4B1A68FB7BA6
:1004C400023B194601238B403A4913430B60FB7BE3
:1004D40003F57F2303F6FE739B0228331A46BB6899
:1004E400013B1360FB7B03F57F2303F6FE739B0242
:1004F4002C331A467B681360FB7B03F57F2303F6DA
:10050400FE739B021A68FB7B03F57F2303F6FE73DD
:100514009B02194642F001030B60FB7B03F57F232A
:1005240003F6FE739B021A68FB7B03F57F2303F635
:10053400FE739B02194622F040030B60FB7B03F51C
:100544007F2303F6FE739B021968BB7B1A01FB7BB6
:1005540003F57F2303F6FE739B02184641EA020368
:10056400036000BFFB7B03F57F2303F6FE739B024E
:1005740010331B68002B01D1012300E00023002B62
:10058400F0D1FB7B03F57F2303F6FE739B0210334C
:100594001A68FB7B03F57F2303F6FE739B0210337B
:1005A400194622F001030B6000BF1437BD465DF805
:1005B400047B70474038024080B483B000AF0346E8
:1005C400FB71FB7903F57F2303F6FE739B020C3367
:1005D4001A68FB7903F57F2303F6FE739B020C3341
:1005E400194642F001030B6000BF0C37BD465DF8AD
:1005F400047B704780B500AF1C20FFF71DFF00206F
:10060400FFF7E6FD0023012200210020FFF7F6FD9D
:100614004FF47A534FF47A7200210220FFF744FF1B
:100624000220FFF7C9FFFEE780B500AF4FF080431B
:100634001B6803F00103002B0CD00A4B1B78DB432F
:10064400DAB2084B1A70074B1B781A4600210020B7
:10065400FFF78EFE044B1B68034A23F0010313606B
:1006640000BF80BD6C0000201000004080B400AFCB
:10067400064BD3F88830054A43F47003C2F8883037
:1006840000BFBD465DF8047B704700BF00ED00E08D
:10069400DFF834D00D480E490E4A002302E0D45846
:1006A400C4500433C4188C42F9D30B4A0B4C0023B6
:1006B40001E013600432A242FBD3FFF7D7FF00F03E
:1006C40011F8FFF797FF7047000001200000002099
:1006D4005000002050070008500000207000002047
:1006E400FEE7000070B50D4D0D4C641BA4100026F0
:1006F400A64209D10B4D0C4C00F018F8641BA41051
:100704000026A64205D170BD55F8043B9847013632
:10071400EEE755F8043B98470136F2E7480700082E
:1007240048070008480700084C070008F8B500BF50
:10073400F8BC08BC9E467047F8B500BFF8BC08BCBE
:040744009E46704716
:04074800B9010008EB
:04074C00950100080B
:100750000000024004000240080002400C00024079
:100760001000024014000240180002401C00024029
:100770002000024024000240000402400404024021
:10078000080402400C040240100402401404024019
:10079000180402401C0402402004024024040240C9
:040000050800069554
:00000001FF
